{
    "abi": [
        {
            "type": "function",
            "name": "authorizedCreators",
            "inputs": [
                {
                    "name": "",
                    "type": "address",
                    "internalType": "address"
                }
            ],
            "outputs": [
                {
                    "name": "",
                    "type": "bool",
                    "internalType": "bool"
                }
            ],
            "stateMutability": "view"
        },
        {
            "type": "function",
            "name": "createBinaryMarket",
            "inputs": [
                {
                    "name": "_question",
                    "type": "string",
                    "internalType": "string"
                },
                {
                    "name": "_outcomeNames",
                    "type": "string[2]",
                    "internalType": "string[2]"
                },
                {
                    "name": "_resolutionTime",
                    "type": "uint256",
                    "internalType": "uint256"
                },
                {
                    "name": "_initialB",
                    "type": "uint256",
                    "internalType": "uint256"
                },
                {
                    "name": "_settlementLogic",
                    "type": "address",
                    "internalType": "address"
                }
            ],
            "outputs": [
                {
                    "name": "marketId",
                    "type": "uint256",
                    "internalType": "uint256"
                },
                {
                    "name": "marketAddress",
                    "type": "address",
                    "internalType": "address"
                }
            ],
            "stateMutability": "payable"
        },
        {
            "type": "function",
            "name": "creationFee",
            "inputs": [],
            "outputs": [
                {
                    "name": "",
                    "type": "uint256",
                    "internalType": "uint256"
                }
            ],
            "stateMutability": "view"
        },
        {
            "type": "function",
            "name": "marketCount",
            "inputs": [],
            "outputs": [
                {
                    "name": "",
                    "type": "uint256",
                    "internalType": "uint256"
                }
            ],
            "stateMutability": "view"
        },
        {
            "type": "function",
            "name": "markets",
            "inputs": [
                {
                    "name": "",
                    "type": "uint256",
                    "internalType": "uint256"
                }
            ],
            "outputs": [
                {
                    "name": "marketAddress",
                    "type": "address",
                    "internalType": "address"
                },
                {
                    "name": "marketType",
                    "type": "uint8",
                    "internalType": "enum PredictionMarketFactory.MarketType"
                },
                {
                    "name": "status",
                    "type": "uint8",
                    "internalType": "enum PredictionMarketFactory.MarketStatus"
                },
                {
                    "name": "creator",
                    "type": "address",
                    "internalType": "address"
                },
                {
                    "name": "question",
                    "type": "string",
                    "internalType": "string"
                },
                {
                    "name": "resolutionTime",
                    "type": "uint256",
                    "internalType": "uint256"
                },
                {
                    "name": "settlementContract",
                    "type": "address",
                    "internalType": "address"
                }
            ],
            "stateMutability": "view"
        },
        {
            "type": "function",
            "name": "minSeedAmount",
            "inputs": [],
            "outputs": [
                {
                    "name": "",
                    "type": "uint256",
                    "internalType": "uint256"
                }
            ],
            "stateMutability": "view"
        },
        {
            "type": "function",
            "name": "owner",
            "inputs": [],
            "outputs": [
                {
                    "name": "",
                    "type": "address",
                    "internalType": "address"
                }
            ],
            "stateMutability": "view"
        },
        {
            "type": "function",
            "name": "permissionlessCreation",
            "inputs": [],
            "outputs": [
                {
                    "name": "",
                    "type": "bool",
                    "internalType": "bool"
                }
            ],
            "stateMutability": "view"
        },
        {
            "type": "function",
            "name": "setAuthorizedCreator",
            "inputs": [
                {
                    "name": "_creator",
                    "type": "address",
                    "internalType": "address"
                },
                {
                    "name": "_authorized",
                    "type": "bool",
                    "internalType": "bool"
                }
            ],
            "outputs": [],
            "stateMutability": "nonpayable"
        },
        {
            "type": "function",
            "name": "setOwner",
            "inputs": [
                {
                    "name": "_newOwner",
                    "type": "address",
                    "internalType": "address"
                }
            ],
            "outputs": [],
            "stateMutability": "nonpayable"
        },
        {
            "type": "function",
            "name": "setPermissionlessCreation",
            "inputs": [
                {
                    "name": "_permissionless",
                    "type": "bool",
                    "internalType": "bool"
                }
            ],
            "outputs": [],
            "stateMutability": "nonpayable"
        },
        {
            "type": "function",
            "name": "updateCreationFee",
            "inputs": [
                {
                    "name": "_newFee",
                    "type": "uint256",
                    "internalType": "uint256"
                }
            ],
            "outputs": [],
            "stateMutability": "nonpayable"
        },
        {
            "type": "function",
            "name": "updateMinSeedAmount",
            "inputs": [
                {
                    "name": "_newMinSeedAmount",
                    "type": "uint256",
                    "internalType": "uint256"
                }
            ],
            "outputs": [],
            "stateMutability": "nonpayable"
        },
        {
            "type": "event",
            "name": "MarketCreated",
            "inputs": [
                {
                    "name": "marketId",
                    "type": "uint256",
                    "indexed": true,
                    "internalType": "uint256"
                },
                {
                    "name": "marketAddress",
                    "type": "address",
                    "indexed": true,
                    "internalType": "address"
                },
                {
                    "name": "marketType",
                    "type": "uint8",
                    "indexed": false,
                    "internalType": "enum PredictionMarketFactory.MarketType"
                },
                {
                    "name": "creator",
                    "type": "address",
                    "indexed": false,
                    "internalType": "address"
                },
                {
                    "name": "question",
                    "type": "string",
                    "indexed": false,
                    "internalType": "string"
                }
            ],
            "anonymous": false
        }
    ],
    "bytecode": {
        "object": "0x6080806040523461003a57670de0b6b3a7640000600455662386f26fc10000600555600160ff196006541617600655613865908161003f8239f35b5f80fdfe6080604052600436101562000012575f80fd5b5f3560e01c806313af40351462000a4a5780636fa237951462000a1957806373135f2614620009fa578063774550af14620009b15780638da5cb5b1462000988578063ad9862d5146200038a578063b1283e7714620001f2578063c695502a14620001b1578063c8664844146200018d578063d60bdda3146200015c578063dce0b4e4146200013d578063e1434f4e14620000d95763ec97908214620000b6575f80fd5b34620000d5575f366003190112620000d5576020600354604051908152f35b5f80fd5b34620000d5576040366003190112620000d557620000f662000a95565b60243590811515809203620000d5575f546001600160a01b03919062000120908316331462000b0a565b165f52600260205260405f209060ff801983541691161790555f80f35b34620000d5575f366003190112620000d5576020600454604051908152f35b34620000d5576020366003190112620000d5576200018560018060a01b035f5416331462000b0a565b600435600555005b34620000d5575f366003190112620000d557602060ff600654166040519015158152f35b34620000d5576020366003190112620000d5576001600160a01b03620001d662000a95565b165f526002602052602060ff60405f2054166040519015158152f35b34620000d557602080600319360112620000d5576004355f52600180825260405f209081549260018060a01b039060ff8560a01c1660ff8660a81c1683600187015416916002870160405180975f908354936200024f8562000aac565b94858552896001821691825f146200036657505060011462000325575b50506200027c9250038762000ae7565b84600460038901549801541694604051981688526002811015620003115783880152600381101562000311579086949392916040860152606085015260e060808501528251928360e08601525f5b848110620002f857505050610100935f85848601015260a084015260c0830152601f80199101168101030190f35b81810183015188820161010001528795508201620002ca565b634e487b7160e01b5f52602160045260245ffd5b8892505f52815f20905f915b8583106200034c5750506200027c93508201018b806200026c565b819484848396959654920101520191018992889262000331565b92509350506200027c94915060ff191682840152151560051b8201018b806200026c565b60a0366003190112620000d55760043567ffffffffffffffff8111620000d55736602382011215620000d55767ffffffffffffffff816004013511620000d557366024826004013583010111620000d55767ffffffffffffffff60243511620000d5573660446024350111620000d557608435906001600160a01b0382168203620000d55760045434106200094357426044351115620008fe5760ff600654168015620008e7575b15620008ab57600354905f1982146200089757600182016003556005545f5460405191906001600160a01b031667ffffffffffffffff612cae8401908111908411176200080a57908291612cae62000b828439612cae830186815261010060208201819052620004ac910160048701356024880162000b61565b612cae84018082036040918201528101929060046024350190805f5b600281106200082957505050604435612cae86016060810191909152606435808418908410029092186080830152506001600160a01b03881660a08201523360c082015260e0015203905ff09081156200081e57604051938460e081011067ffffffffffffffff60e0870111176200080a5760e0850160405260018060a01b03831685525f60208601525f60408601523360608601526040516200057b6020601f19601f86600401350116018262000ae7565b60048301358082526024840160208301375f6020846004013583010152608086015260443560a086015260018060a01b031660c0850152825f52600160205260405f209360018060a01b0381511685546020830151916002831015620003115760408401516003811015620003115760ff60a81b9060a81b169260ff60a01b9060a01b169169ffffffffffffffffffff60b01b1617171785556001850160018060a01b036060830151166bffffffffffffffffffffffff60a01b825416179055608081015194855167ffffffffffffffff81116200080a5762000662600283015462000aac565b601f8111620007c1575b506020601f82116001146200074c579080600493926040995f9262000740575b50508160011b915f199060031b1c19161760028201555b60a08301516003820155019060c060018060a01b03910151166bffffffffffffffffffffffff60a01b825416179055827fe8aca5bb83a1a11ffe2667487e4a4d2d2b41ad92bbfff3d45a2c78f092a2f31285515f8152336020820152606087820152806200072860018060a01b03871695606083019060248160040135910162000b61565b0390a382519182526001600160a01b03166020820152f35b0151905089806200068c565b600283015f5260205f20975f5b601f1984168110620007a85750916040986001926004959483601f198116106200078f575b505050811b016002820155620006a3565b01515f1960f88460031b161c191690558980806200077e565b828201518a556001909901986020928301920162000759565b600283015f5260205f20601f830160051c81016020841062000802575b601f830160051c82018110620007f65750506200066c565b5f8155600101620007de565b5080620007de565b634e487b7160e01b5f52604160045260245ffd5b6040513d5f823e3d90fd5b919394959080939750810384528635602219602435360301811215620000d55760243501906024600483013592019167ffffffffffffffff8111620000d5578036038313620000d55762000884602092839260019562000b61565b98019401910191879695949392620004c8565b634e487b7160e01b5f52601160045260245ffd5b60405162461bcd60e51b81526020600482015260146024820152732ab730baba3437b934bd32b21031b932b0ba37b960611b6044820152606490fd5b50335f52600260205260ff60405f20541662000432565b60405162461bcd60e51b815260206004820152601960248201527f5265736f6c7574696f6e206d75737420626520667574757265000000000000006044820152606490fd5b60405162461bcd60e51b815260206004820152601960248201527f496e73756666696369656e74206372656174696f6e20666565000000000000006044820152606490fd5b34620000d5575f366003190112620000d5575f546040516001600160a01b039091168152602090f35b34620000d5576020366003190112620000d557600435801515809103620000d557620009e860018060a01b035f5416331462000b0a565b60ff8019600654169116176006555f80f35b34620000d5575f366003190112620000d5576020600554604051908152f35b34620000d5576020366003190112620000d55762000a4260018060a01b035f5416331462000b0a565b600480359055005b34620000d5576020366003190112620000d55762000a6762000a95565b5f54906001600160a01b039062000a82338385161462000b0a565b6001600160a01b03199092169116175f55005b600435906001600160a01b0382168203620000d557565b90600182811c9216801562000adc575b602083101462000ac857565b634e487b7160e01b5f52602260045260245ffd5b91607f169162000abc565b90601f8019910116810190811067ffffffffffffffff8211176200080a57604052565b1562000b1257565b60405162461bcd60e51b815260206004820152602160248201527f4f6e6c79206f776e65722063616e2063616c6c20746869732066756e6374696f6044820152603760f91b6064820152608490fd5b908060209392818452848401375f828201840152601f01601f191601019056fe604060e0815234620003da5762002cae803803806200001e81620003de565b928339810161010082820312620003da57815160208084015191926001600160401b0392838111620003da57816200005891870162000404565b9386860151848111620003da57860193601f92808487011215620003da578851958987018781108482111762000301578a5286908a810192808411620003da5781925b848410620003b3575050505050606087015193608088015195620000c260a08a0162000474565b97620000df60e0620000d760c08d0162000474565b9b0162000474565b50600194857f9b779b17422d0df92223018b32b4d1fa46e071723d6817e2486d003becc55f00556080528051908482116200030157620001205f5462000489565b87811162000378575b50839087831160011462000315576200015a92915f918362000252575b50508160011b915f199060031b1c19161790565b5f555b90835f925b60028410620001ea57505050505050506003558060c05260065560018060a01b031660018060a01b0319600554161760055560a052516127d19081620004dd8239608051818181610d4e0152611635015260a05181818161090601528181610d90015281816111ac015281816116ae0152611859015260c05181818161180101526123ec0152f35b805190815186811162000301578791859162000207865462000489565b8b8111620002c5575b5082948b82116001146200025e579080859662000242935f92620002525750508160011b915f199060031b1c19161790565b85555b0192019301929062000162565b015190505f8062000146565b94601f19821690875f52845f20915f5b818110620002ad575090869784889594931062000294575b505050811b01855562000245565b01515f1960f88460031b161c191690555f808062000286565b8289015184558d978b9794019392830192016200026e565b620002f090875f52845f208d600590808601821c830193888710620002f7575b01901c0190620004c4565b5f62000210565b93508293620002e5565b634e487b7160e01b5f52604160045260245ffd5b869291601f198316915f8052865f20925f5b8882821062000361575050841162000348575b505050811b015f556200015d565b01515f1960f88460031b161c191690555f80806200033a565b8385015186558b9790950194938401930162000327565b620003a2905f8052855f208980860160051c820192888710620003a9575b0160051c0190620004c4565b5f62000129565b9250819262000396565b8351868111620003da578991620003ce848493870162000404565b8152019301926200009b565b5f80fd5b6040519190601f01601f191682016001600160401b038111838210176200030157604052565b919080601f84011215620003da5782516001600160401b03811162000301576020906200043a601f8201601f19168301620003de565b92818452828287010111620003da575f5b818110620004605750825f9394955001015290565b85810183015184820184015282016200044b565b51906001600160a01b0382168203620003da57565b90600182811c92168015620004b9575b6020831014620004a557565b634e487b7160e01b5f52602260045260245ffd5b91607f169162000499565b818110620004d0575050565b5f8155600101620004c456fe6080604090808252600480361015610021575b505050361561001f575f80fd5b005b5f3560e01c91826302d05d3f1461184757508163081c2800146118245781630e877bbb146117ea578163121a257f146117cf57816313af40351461173f5781631677d4681461168757816323341a05146115f557816327acae74146114eb5781632acf1cd2146114cd5781632c2a00c6146114b25781633175cc851461128257816331ba008c1461125d5781633f4ba83a1461118d5781633fad9ae01461115957816340db650f1461113f57816344f8dbf0146111215781634df7e3d0146111035781634f896d4f14610f5957816356bc793e14610f22578163570a4bb314610f045781635ae01f8214610ee65781635c975abb14610ec05781635db5205114610ea557816368a94dfc14610e695781636a293e3c14610e4e5781636bfefd6b14610d715781636ed71ede14610d3757816373b2e80e14610cfb5781637860eef014610ab05781637865374f146109f6578163818fa941146109bf5781638456cb59146108e75781638da5cb5b146108c057816395ee12211461089a5781639b34ae031461087c578163aac0297a1461085e578163aaf5eb681461083c578163b401faf114610679578163b5545a3c146104a6578163b60efff01461046f578163bfc5960114610451578163ce39469614610436578163d00d23e31461040e578163d300cb31146103d5578163d31dbc3e146103f0578163d90cdf97146103d5578163dbb3f537146103b2578163e53dc6801461038a578163e75722301461036557508063e7fe6dad14610347578063e872b6fd14610301578063ea42418b146102d9578063ee38b201146102a25763f3e41e9014610281578080610012565b3461029e575f36600319011261029e576020906003549051908152f35b5f80fd5b503461029e57602036600319011261029e576020906001600160a01b036102c761189e565b165f52600e8252805f20549051908152f35b503461029e575f36600319011261029e5760055490516001600160a01b039091168152602090f35b503461029e575f36600319011261029e5760209060ff601054168061033b575b61032a90611f9b565b64e8d4a51000601254049051908152f35b5060135460ff16610321565b503461029e575f36600319011261029e576020906016549051908152f35b823461029e57602036600319011261029e5761038360209235612305565b9051908152f35b823461029e578060031936011261029e576020906103836103a961189e565b602435906122bd565b823461029e575f36600319011261029e5760209060ff6010541690519015158152f35b823461029e575f36600319011261029e576020905160028152f35b823461029e575f36600319011261029e57602090600c549051908152f35b823461029e575f36600319011261029e5760155490516001600160a01b039091168152602090f35b823461029e5760209061038361044b36611888565b90611fd6565b823461029e575f36600319011261029e576020906007549051908152f35b823461029e57602036600319011261029e576020906001600160a01b0361049461189e565b165f52600f8252805f20549051908152f35b90503461029e575f36600319011261029e576104c06123b5565b60ff60155460a81c161561064057335f526020916017835260ff815f20541661060657335f52600e83526104ff815f2054600f8552825f205490611a65565b9182156105d0575061056461052261051960095485611a93565b60165490611aa6565b92335f5260178552825f20600160ff19825416179055600e85525f83812055600f85525f83812055600a85525f83812055600b85525f83812055601654611a86565b60165561057382600954611a86565b60095561058f5f80808086335af1610589611ddf565b50611f5d565b80518281527f358fe4192934d3bf28ae181feda1f4bd08ca67f5e2fad55582cce5eb67304ae9843392a260015f8051602061277c8339815191525551908152f35b83606492519162461bcd60e51b83528201526012602482015271139bc8199d5b991cc81d1bc81c99599d5b9960721b6044820152fd5b91606492519162461bcd60e51b83528201526016602482015275105b1c9958591e4818db185a5b5959081c99599d5b9960521b6044820152fd5b6020606492519162461bcd60e51b8352820152601460248201527313585c9ad95d081b9bdd0818d85b98d95b1b195960621b6044820152fd5b823461029e575f36600319011261029e576106926123b5565b6106a460ff60155460a81c1615611ebe565b6106b260ff60105416611f9b565b60ff601354161561080857335f526020916014835260ff825f2054166107d5576011546107c057335f52600a8352815f20905f825492555b8115610789575061070464e8d4a510009160125490611a93565b049061071d600954928380821091180283188093611a86565b600955335f5260148352805f20600160ff198254161790556107485f80808086335af1610589611ddf565b80518281527f1a31e733a172afcf46074b3106c17f0c298e226442682a03c1e99ce256139ec2843392a260015f8051602061277c8339815191525551908152f35b825162461bcd60e51b815290810184905260116024820152704e6f2077696e6e696e672073686172657360781b6044820152606490fd5b335f52600b8352815f20905f825492556106ea565b82606492519162461bcd60e51b8352820152600f60248201526e105b1c9958591e4818db185a5b5959608a1b6044820152fd5b906020606492519162461bcd60e51b8352820152600e60248201526d14185e5bdd5d081b9bdd081cd95d60921b6044820152fd5b823461029e575f36600319011261029e5760209051670de0b6b3a76400008152f35b823461029e575f36600319011261029e576020906009549051908152f35b823461029e575f36600319011261029e576020906011549051908152f35b823461029e575f36600319011261029e5760209060ff60155460a81c1690519015158152f35b823461029e575f36600319011261029e57905490516001600160a01b039091168152602090f35b90503461029e575f36600319011261029e5761093660018060a01b03807f00000000000000000000000000000000000000000000000000000000000000001633149081156109b1575b50611b8a565b6015549160ff8360a01c1661097d5760ff60a01b198316600160a01b17601555337f0d65e0f4a7cf3a67f8d4e1f952cd658769a7e982c95cbbe018fa38feb543b12f5f80a2005b906020606492519162461bcd60e51b8352820152600e60248201526d105b1c9958591e481c185d5cd95960921b6044820152fd5b90506005541633145f610930565b823461029e57602036600319011261029e576020906001600160a01b036109e461189e565b165f52600a8252805f20549051908152f35b90503461029e575f36600319011261029e576015546001600160a01b03169033829003610a7a57610a2b60ff60105416611f9b565b600954928315610a4c5761001f5f8080808888826009555af1610589611ddf565b906020606492519162461bcd60e51b835282015260086024820152674e6f2066756e647360c01b6044820152fd5b606490602084519162461bcd60e51b8352820152601060248201526f27b7363c903234b9ba3934b13aba37b960811b6044820152fd5b90503461029e57610ac036611a0d565b9192610aca6123b5565b610ad960ff6010541615611cd3565b610aeb60ff60155460a01c1615611d1f565b610af760028510611a27565b610b02821515611d5e565b8315938415610cdf57335f52600a602052855f205490600e602052865f2054925b848310610ca65750610c3d92610b94610b757fcf06b88583ec57d4cf2f6795931fe9057d95a86052efc8d8b3a4cad0e885d5e9989994610b7088610b6a81610bf198611c11565b95611a93565b611aa6565b9182808210911802821860095490818082109118021896871015611d9f565b8715610c5357335f52600a602052825f20610bb0868254611a86565b9055610bbe85600c54611a86565b600c55335f52600e602052825f20610bd7828254611a86565b9055610be585600754611a86565b6007555b601654611a86565b601655610c0084600954611a86565b600955610c165f80808088335af1610589611ddf565b610c1e6123e4565b5192839233968460409194939260608201951515825260208201520152565b0390a260015f8051602061277c83398151915255005b335f52600b602052825f20610c69868254611a86565b9055610c7785600d54611a86565b600d55335f52600f602052825f20610c90828254611a86565b9055610c9e85600854611a86565b600855610be9565b606490602089519162461bcd60e51b83528201526013602482015272496e73756666696369656e742073686172657360681b6044820152fd5b335f52600b602052855f205490600f602052865f205492610b23565b823461029e57602036600319011261029e576020906001600160a01b03610d2061189e565b165f526014825260ff815f20541690519015158152f35b823461029e575f36600319011261029e57602090517f00000000000000000000000000000000000000000000000000000000000000008152f35b90503461029e575f36600319011261029e57610dbf60018060a01b03807f00000000000000000000000000000000000000000000000000000000000000001633149081156109b15750611b8a565b610dce60ff6010541615611f1e565b6015549160ff8360a81c16610e175761ffff60a01b19831661010160a01b17601555337f996fafab197beb99fff6fdc975bb6cf90352f2c733c76ef37c2e27f17d7d424b5f80a2005b906020606492519162461bcd60e51b83528201526011602482015270105b1c9958591e4818d85b98d95b1b1959607a1b6044820152fd5b823461029e575f36600319011261029e5760209051600a8152f35b823461029e57602036600319011261029e576020906001600160a01b03610e8e61189e565b165f526017825260ff815f20541690519015158152f35b823461029e575f36600319011261029e576020905160018152f35b823461029e575f36600319011261029e5760209060ff60155460a01c1690519015158152f35b823461029e575f36600319011261029e57602090600d549051908152f35b823461029e575f36600319011261029e576020906012549051908152f35b823461029e57602036600319011261029e576020906001600160a01b03610f4761189e565b165f52600b8252805f20549051908152f35b823461029e57602036600319011261029e576005548235906001600160a01b031633036110c057610f9260ff60155460a81c1615611ebe565b60105492610fa360ff851615611f1e565b600354421061108657610fb860028310611a27565b601182905560ff199384166001176010558161107d57600c54905b81611017575b505060017f6dfc24f0f2fb42e49fb4fa3ffa8abb148cab908a1fb8335b3f128a08b2594af193601354161760135560125482519182526020820152a1005b6009549064e8d4a510009182810292818404149015171561106a5750936110616001927f6dfc24f0f2fb42e49fb4fa3ffa8abb148cab908a1fb8335b3f128a08b2594af196611aa6565b60125593610fd9565b601190634e487b7160e01b5f525260245ffd5b600d5490610fd3565b606490602084519162461bcd60e51b83528201526014602482015273546f6f206561726c7920746f207265736f6c766560601b6044820152fd5b815162461bcd60e51b8152602081850152601860248201527f4f6e6c7920736574746c656d656e74207265736f6c76657200000000000000006044820152606490fd5b823461029e575f36600319011261029e576020906006549051908152f35b823461029e57602036600319011261029e5761038360209235611f00565b823461029e575f36600319011261029e57602090515f8152f35b823461029e575f36600319011261029e5761118990611176611928565b90519182916020835260208301906118b4565b0390f35b90503461029e575f36600319011261029e576111db60018060a01b03807f00000000000000000000000000000000000000000000000000000000000000001633149081156109b15750611b8a565b6015549160ff8360a01c161561122d57826111fc60ff8260a81c1615611ebe565b60ff60a01b1916601555337f3fbffb448bfc0010197580b083048a6c73e5cd8d20ff95ea5119c636e86fb5eb5f80a2005b906020606492519162461bcd60e51b8352820152600a602482015269139bdd081c185d5cd95960b21b6044820152fd5b823461029e57602036600319011261029e5760209061038361127d61189e565b611e1e565b905061128d36611a0d565b926112999291926123b5565b6112a860ff6010541615611cd3565b6112ba60ff60155460a01c1615611d1f565b6112c660028310611a27565b6112d1831515611d5e565b6112e76112de8484611ac4565b94851115611d9f565b831561148057833410611446578334116113f5575b5090610c3d7f9bd054fb950acb82b978a4ba93668286e2c3fa8c43589f21061c8520068ba80c93921594855f146113a25761133983600754611a65565b600755335f52600a602052805f20611352848254611a65565b905561136083600c54611a65565b600c55335f52600e602052805f20611379858254611a65565b90555b61138884600954611a65565b60095561139784601654611a65565b601655610c1e6123e4565b6113ae83600854611a65565b600855335f52600b602052805f206113c7848254611a65565b90556113d583600d54611a65565b600d55335f52600f602052805f206113ee858254611a65565b905561137c565b5f8080806114038834611a86565b335af161140e611ddf565b506112fc57606490602086519162461bcd60e51b8352820152600d60248201526c1499599d5b990819985a5b1959609a1b6044820152fd5b606490602086519162461bcd60e51b83528201526014602482015273125b9cdd59999a58da595b9d081c185e5b595b9d60621b6044820152fd5b606490602086519162461bcd60e51b8352820152600c60248201526b436f737420746f6f206c6f7760a01b6044820152fd5b823461029e576020906103836114c736611888565b90611c11565b823461029e575f36600319011261029e576020906008549051908152f35b823461029e5760208060031936011261029e57823591600283101561029e57600192600101928151935f918154918260011c926001811680156115eb575b87851081146115d8578899509688969785829a5291825f146115b1575050600114611571575b50505061118992916115629103856118f2565b519282849384528301906118b4565b8693505f92919252825f20915f925b828410611599575050508201018161156261118961154f565b8054848a018601528895508794909301928101611580565b60ff19168782015293151560051b860190930193508492506115629150611189905061154f565b60228a634e487b7160e01b5f525260245ffd5b93607f1693611529565b823461029e575f36600319011261029e57611664906007549060085460065460095460ff60105416916011549361162a611928565b9686519889986101007f00000000000000000000000000000000000000000000000000000000000000008b528060208c01528a01906118b4565b968801526060870152608086015260a0850152151560c084015260e08301520390f35b90503461029e57602036600319011261029e576116a261189e565b6001600160a01b0391337f00000000000000000000000000000000000000000000000000000000000000008416148015611732575b6116e090611b8a565b601554938385166117015750506001600160a01b0319909216911617601555005b906020606492519162461bcd60e51b8352820152600b60248201526a105b1c9958591e481cd95d60aa1b6044820152fd5b50600554831633146116d7565b823461029e57602036600319011261029e5761175961189e565b8254916001600160a01b039190828416330361178357506001600160a01b03199092169116179055005b5162461bcd60e51b8152602081860152602160248201527f4f6e6c79206f776e65722063616e2063616c6c20746869732066756e6374696f6044820152603760f91b6064820152608490fd5b823461029e576020906103836117e436611888565b90611ac4565b823461029e575f36600319011261029e57602090517f00000000000000000000000000000000000000000000000000000000000000008152f35b823461029e575f36600319011261029e5760209060ff6013541690519015158152f35b3461029e575f36600319011261029e577f00000000000000000000000000000000000000000000000000000000000000006001600160a01b03168152602090f35b604090600319011261029e576004359060243590565b600435906001600160a01b038216820361029e57565b91908251928382525f5b8481106118de575050825f602080949584010152601f8019910116010190565b6020818301810151848301820152016118be565b90601f8019910116810190811067ffffffffffffffff82111761191457604052565b634e487b7160e01b5f52604160045260245ffd5b604051905f8054906001908260011c60018416928315611a03575b60209485831085146119ef5782885287949081156119cf5750600114611974575b5050611972925003836118f2565b565b5f8080527f290decd9548b62a8d60345a988386fc84ba6bc95484008f6362f93160ef3e56395935091905b8183106119b757505061197293508201015f80611964565b8554888401850152948501948794509183019161199f565b91505061197294925060ff191682840152151560051b8201015f80611964565b634e487b7160e01b5f52602260045260245ffd5b90607f1690611943565b606090600319011261029e57600435906024359060443590565b15611a2e57565b60405162461bcd60e51b815260206004820152600f60248201526e496e76616c6964206f7574636f6d6560881b6044820152606490fd5b91908201809211611a7257565b634e487b7160e01b5f52601160045260245ffd5b91908203918211611a7257565b81810292918115918404141715611a7257565b8115611ab0570490565b634e487b7160e01b5f52601260045260245ffd5b611ad060028210611a27565b600754908192600854928392155f14611b785791611af5611afb92611b019594611a65565b94611fd6565b92611fd6565b90808210611b4157611b1291611a86565b620f424090818102918183041490151715611a7257670de0b6b3a764000090048015611b3b5790565b50600190565b60405162461bcd60e51b815260206004820152600f60248201526e21b7b9ba1031b0b6319032b93937b960891b6044820152606490fd5b9391611afb611afb92611b0195611a65565b15611b9157565b60405162461bcd60e51b815260206004820152600c60248201526b155b985d5d1a1bdc9a5e995960a21b6044820152606490fd5b15611bcc57565b60405162461bcd60e51b815260206004820152601f60248201527f496e73756666696369656e7420736861726573206f75747374616e64696e67006044820152606490fd5b611c1d60028210611a27565b600754908192600854928392155f14611cba5791611af58284611c49611afb95611c4e98971015611bc5565b611a86565b808210611c8157611c5e91611a86565b620f424090818102918183041490151715611a7257670de0b6b3a7640000900490565b60405162461bcd60e51b81526020600482015260116024820152702932b33ab7321031b0b6319032b93937b960791b6044820152606490fd5b9391611afb8285611c49611afb95611c4e981015611bc5565b15611cda57565b60405162461bcd60e51b815260206004820152601760248201527f4d61726b657420616c7265616479207265736f6c7665640000000000000000006044820152606490fd5b15611d2657565b60405162461bcd60e51b815260206004820152601060248201526f13585c9ad95d081a5cc81c185d5cd95960821b6044820152606490fd5b15611d6557565b60405162461bcd60e51b81526020600482015260126024820152710416d6f756e74206d757374206265203e20360741b6044820152606490fd5b15611da657565b60405162461bcd60e51b815260206004820152601160248201527014db1a5c1c1859d948195e18d959591959607a1b6044820152606490fd5b3d15611e19573d9067ffffffffffffffff82116119145760405191611e0e601f8201601f1916602001846118f2565b82523d5f602084013e565b606090565b60ff60105416158015611eb1575b8015611e90575b611e8b57601154611e695760018060a01b03165f52600a60205264e8d4a51000611e6560405f20545b60125490611a93565b0490565b60018060a01b03165f52600b60205264e8d4a51000611e6560405f2054611e5c565b505f90565b506001600160a01b0381165f9081526014602052604090205460ff16611e33565b5060ff6013541615611e2c565b15611ec557565b60405162461bcd60e51b815260206004820152601360248201527213585c9ad95d081a5cc818d85b98d95b1b1959606a1b6044820152606490fd5b8015611f1757600114611f11575f90565b600d5490565b50600c5490565b15611f2557565b60405162461bcd60e51b815260206004820152601060248201526f105b1c9958591e481c995cdbdb1d995960821b6044820152606490fd5b15611f6457565b60405162461bcd60e51b815260206004820152600f60248201526e151c985b9cd9995c8819985a5b1959608a1b6044820152606490fd5b15611fa257565b60405162461bcd60e51b815260206004820152600c60248201526b139bdd081c995cdbdb1d995960a21b6044820152606490fd5b90670de0b6b3a76400009081830292808404831490151715611a7257611fff6006548094611aa6565b82820291808304841490151715611a725761202f6120296120238661203595611aa6565b92612450565b91612450565b90611a65565b8015612288575f928180600160801b811015612279575b68010000000000000000821015612262575b64010000000082101561224b575b62010000821015612234575b61010082101561221d575b6010821015612206575b600493848310156121ef575b6002809310156121ca575b603c87106121a25750603b19860195861161218f57851c945b5f916706f05b59d3b20000965f905b6040821061213f575b5050508495506120f9916120ef6120f492969495966124e6565b612542565b612503565b05915f831261210d575090611e6591611a93565b60649060206040519162461bcd60e51b8352820152600b60248201526a2732b3b0ba34bb3290363760a91b6044820152fd5b61214a818992611a93565b0497671bc16d674ec80000891015612176575b8290059081156121715760010190976120cc565b6120d5565b9793612183898492612542565b9460011c98905061215d565b601184634e487b7160e01b5f525260245ffd5b959050603c03603c811161218f576121b99061255d565b946121c38661255d565b1b946120bd565b95600181018091116121dc57956120a4565b601185634e487b7160e01b5f525260245ffd5b959160021c91600281018091116121dc5795612099565b949060041c9060048101809111611a72579461208d565b949060081c9060088101809111611a725794612083565b949060101c9060108101809111611a725794612078565b949060201c9060208101809111611a72579461206c565b949060401c9060408101809111611a72579461205e565b9450508160801c60809461204c565b60405162461bcd60e51b815260206004820152600d60248201526c436f7374206f766572666c6f7760981b6044820152606490fd5b9080156122ea576001146122d057505f90565b6001600160a01b03165f908152600b602052604090205490565b506001600160a01b03165f908152600a602052604090205490565b61231160028210611a27565b60075490670de0b6b3a76400009182810290808204841490151715611a72576123456123406006548093611aa6565b612450565b92600854818102918183041490151715611a72576123669161234091611aa6565b6123708184611a65565b916123975750620f424091828102928184041490151715611a725761239491611aa6565b90565b620f424080820293508115918404141715611a725761239491611aa6565b5f8051602061277c83398151915260028154146123d25760029055565b604051633ee5aeb560e01b8152600490fd5b600a600954047f00000000000000000000000000000000000000000000000000000000000000008180821191180218600654810361241f5750565b6020817f143a2bdaa054679e1fd0879d46bc062d38c5a636c18e515a1218434a427b7afe92600655604051908152a1565b6001600160ff1b0381116124ac576124679061256d565b5f81126124715790565b60405162461bcd60e51b8152602060048201526013602482015272195e1c081b9959d85d1a5d99481c995cdd5b1d606a1b6044820152606490fd5b60405162461bcd60e51b815260206004820152601260248201527165787020696e707574206f766572666c6f7760701b6044820152606490fd5b90670de0b6b3a764000091828102928184051490151715611a7257565b9067099e8db03256ce5d91828102928184051490151715611a7257565b81810292915f8212600160ff1b821416611a72578184051490151715611a7257565b9190915f8382019384129112908015821691151617611a7257565b600160ff1b8114611a72575f0390565b680755bf798b4a1bf1e5811361276357680248ce36a70cb26b3e198112611e8b576714057b7ef767814f90818102918183051490151715611a7257670de0b6b3a764000080910590808205915f811280612758575b612743575b6125d0836124e6565b905f8282039212818312811691831390151617611a7257816125f182612503565b0590818301918212600116611a72578261260b8280612520565b059167035574bc3cee1d25808402908482051484151715611a72578261263886938461263e940590612542565b94612520565b059166c530b1588a974c808402908482051484151715611a72578261263886938461266a940590612542565b059166222b7d6ee0447c808402908482051484151715611a725782612638869384612696940590612542565b05916604bcae17b0e4b091828402928484051484151715611a72576126c26126c8928680950590612542565b93612520565b0591658c182392e77892838102938185051490151715611a72576126ed920590612542565b905f81126127365760ff811215612702571b90565b60405162461bcd60e51b815260206004820152600c60248201526b657870206f766572666c6f7760a01b6044820152606490fd5b61273f9061255d565b1d90565b915f198101908113600116611a7257916125c7565b5081810715156125c2565b6024906040519063090e067560e21b82526004820152fdfe9b779b17422d0df92223018b32b4d1fa46e071723d6817e2486d003becc55f00a26469706673582212207f5b941603234feb3e80fff901e5149ec03b16957b96301364d1b2aa3b3e9e9c64736f6c63430008180033a26469706673582212204afa1e3bbb1d4136981837eda1851cfe8d6f7838a245f663eb10a3d7ce17652564736f6c63430008180033",
        "linkReferences": {}
    },
    "methodIdentifiers": {
        "authorizedCreators(address)": "c695502a",
        "createBinaryMarket(string,string[2],uint256,uint256,address)": "ad9862d5",
        "creationFee()": "dce0b4e4",
        "marketCount()": "ec979082",
        "markets(uint256)": "b1283e77",
        "minSeedAmount()": "73135f26",
        "owner()": "8da5cb5b",
        "permissionlessCreation()": "c8664844",
        "setAuthorizedCreator(address,bool)": "e1434f4e",
        "setOwner(address)": "13af4035",
        "setPermissionlessCreation(bool)": "774550af",
        "updateCreationFee(uint256)": "6fa23795",
        "updateMinSeedAmount(uint256)": "d60bdda3"
    },
    "id": 31
}